{
  "_format": "hh-sol-artifact-1",
  "contractName": "ArtERC404",
  "sourceName": "contracts/examples/ArtERC404.sol",
  "abi": [
    {
      "inputs": [
        {
          "internalType": "string",
          "name": "name_",
          "type": "string"
        },
        {
          "internalType": "string",
          "name": "symbol_",
          "type": "string"
        },
        {
          "internalType": "uint8",
          "name": "decimals_",
          "type": "uint8"
        },
        {
          "internalType": "uint256",
          "name": "maxTotalSupplyERC721_",
          "type": "uint256"
        },
        {
          "internalType": "address",
          "name": "initialOwner_",
          "type": "address"
        },
        {
          "internalType": "address",
          "name": "initialMintRecipient_",
          "type": "address"
        }
      ],
      "stateMutability": "nonpayable",
      "type": "constructor"
    },
    {
      "inputs": [],
      "name": "AlreadyExists",
      "type": "error"
    },
    {
      "inputs": [],
      "name": "DecimalsTooLow",
      "type": "error"
    },
    {
      "inputs": [],
      "name": "InsufficientAllowance",
      "type": "error"
    },
    {
      "inputs": [],
      "name": "InvalidApproval",
      "type": "error"
    },
    {
      "inputs": [],
      "name": "InvalidExemption",
      "type": "error"
    },
    {
      "inputs": [],
      "name": "InvalidOperator",
      "type": "error"
    },
    {
      "inputs": [],
      "name": "InvalidRecipient",
      "type": "error"
    },
    {
      "inputs": [],
      "name": "InvalidSender",
      "type": "error"
    },
    {
      "inputs": [],
      "name": "InvalidSigner",
      "type": "error"
    },
    {
      "inputs": [],
      "name": "InvalidSpender",
      "type": "error"
    },
    {
      "inputs": [],
      "name": "InvalidTokenId",
      "type": "error"
    },
    {
      "inputs": [],
      "name": "MintLimitReached",
      "type": "error"
    },
    {
      "inputs": [],
      "name": "NotFound",
      "type": "error"
    },
    {
      "inputs": [
        {
          "internalType": "address",
          "name": "owner",
          "type": "address"
        }
      ],
      "name": "OwnableInvalidOwner",
      "type": "error"
    },
    {
      "inputs": [
        {
          "internalType": "address",
          "name": "account",
          "type": "address"
        }
      ],
      "name": "OwnableUnauthorizedAccount",
      "type": "error"
    },
    {
      "inputs": [],
      "name": "OwnedIndexOverflow",
      "type": "error"
    },
    {
      "inputs": [],
      "name": "PermitDeadlineExpired",
      "type": "error"
    },
    {
      "inputs": [],
      "name": "QueueEmpty",
      "type": "error"
    },
    {
      "inputs": [],
      "name": "QueueFull",
      "type": "error"
    },
    {
      "inputs": [],
      "name": "QueueOutOfBounds",
      "type": "error"
    },
    {
      "inputs": [],
      "name": "RecipientIsERC721TransferExempt",
      "type": "error"
    },
    {
      "inputs": [],
      "name": "Unauthorized",
      "type": "error"
    },
    {
      "inputs": [],
      "name": "UnsafeRecipient",
      "type": "error"
    },
    {
      "anonymous": false,
      "inputs": [
        {
          "indexed": true,
          "internalType": "address",
          "name": "owner",
          "type": "address"
        },
        {
          "indexed": true,
          "internalType": "address",
          "name": "spender",
          "type": "address"
        },
        {
          "indexed": false,
          "internalType": "uint256",
          "name": "value",
          "type": "uint256"
        }
      ],
      "name": "Approval",
      "type": "event"
    },
    {
      "anonymous": false,
      "inputs": [
        {
          "indexed": true,
          "internalType": "address",
          "name": "owner",
          "type": "address"
        },
        {
          "indexed": true,
          "internalType": "address",
          "name": "spender",
          "type": "address"
        },
        {
          "indexed": true,
          "internalType": "uint256",
          "name": "id",
          "type": "uint256"
        }
      ],
      "name": "Approval",
      "type": "event"
    },
    {
      "anonymous": false,
      "inputs": [
        {
          "indexed": true,
          "internalType": "address",
          "name": "owner",
          "type": "address"
        },
        {
          "indexed": true,
          "internalType": "address",
          "name": "operator",
          "type": "address"
        },
        {
          "indexed": false,
          "internalType": "bool",
          "name": "approved",
          "type": "bool"
        }
      ],
      "name": "ApprovalForAll",
      "type": "event"
    },
    {
      "anonymous": false,
      "inputs": [
        {
          "indexed": true,
          "internalType": "address",
          "name": "previousOwner",
          "type": "address"
        },
        {
          "indexed": true,
          "internalType": "address",
          "name": "newOwner",
          "type": "address"
        }
      ],
      "name": "OwnershipTransferred",
      "type": "event"
    },
    {
      "anonymous": false,
      "inputs": [
        {
          "indexed": true,
          "internalType": "address",
          "name": "from",
          "type": "address"
        },
        {
          "indexed": true,
          "internalType": "address",
          "name": "to",
          "type": "address"
        },
        {
          "indexed": false,
          "internalType": "uint256",
          "name": "amount",
          "type": "uint256"
        }
      ],
      "name": "Transfer",
      "type": "event"
    },
    {
      "anonymous": false,
      "inputs": [
        {
          "indexed": true,
          "internalType": "address",
          "name": "from",
          "type": "address"
        },
        {
          "indexed": true,
          "internalType": "address",
          "name": "to",
          "type": "address"
        },
        {
          "indexed": true,
          "internalType": "uint256",
          "name": "id",
          "type": "uint256"
        }
      ],
      "name": "Transfer",
      "type": "event"
    },
    {
      "inputs": [],
      "name": "DOMAIN_SEPARATOR",
      "outputs": [
        {
          "internalType": "bytes32",
          "name": "",
          "type": "bytes32"
        }
      ],
      "stateMutability": "view",
      "type": "function"
    },
    {
      "inputs": [],
      "name": "ID_ENCODING_PREFIX",
      "outputs": [
        {
          "internalType": "uint256",
          "name": "",
          "type": "uint256"
        }
      ],
      "stateMutability": "view",
      "type": "function"
    },
    {
      "inputs": [
        {
          "internalType": "address",
          "name": "",
          "type": "address"
        },
        {
          "internalType": "address",
          "name": "",
          "type": "address"
        }
      ],
      "name": "allowance",
      "outputs": [
        {
          "internalType": "uint256",
          "name": "",
          "type": "uint256"
        }
      ],
      "stateMutability": "view",
      "type": "function"
    },
    {
      "inputs": [
        {
          "internalType": "address",
          "name": "spender_",
          "type": "address"
        },
        {
          "internalType": "uint256",
          "name": "valueOrId_",
          "type": "uint256"
        }
      ],
      "name": "approve",
      "outputs": [
        {
          "internalType": "bool",
          "name": "",
          "type": "bool"
        }
      ],
      "stateMutability": "nonpayable",
      "type": "function"
    },
    {
      "inputs": [
        {
          "internalType": "address",
          "name": "",
          "type": "address"
        }
      ],
      "name": "balanceOf",
      "outputs": [
        {
          "internalType": "uint256",
          "name": "",
          "type": "uint256"
        }
      ],
      "stateMutability": "view",
      "type": "function"
    },
    {
      "inputs": [],
      "name": "baseURI",
      "outputs": [
        {
          "internalType": "string",
          "name": "",
          "type": "string"
        }
      ],
      "stateMutability": "view",
      "type": "function"
    },
    {
      "inputs": [],
      "name": "decimals",
      "outputs": [
        {
          "internalType": "uint8",
          "name": "",
          "type": "uint8"
        }
      ],
      "stateMutability": "view",
      "type": "function"
    },
    {
      "inputs": [
        {
          "internalType": "address",
          "name": "spender_",
          "type": "address"
        },
        {
          "internalType": "uint256",
          "name": "value_",
          "type": "uint256"
        }
      ],
      "name": "erc20Approve",
      "outputs": [
        {
          "internalType": "bool",
          "name": "",
          "type": "bool"
        }
      ],
      "stateMutability": "nonpayable",
      "type": "function"
    },
    {
      "inputs": [
        {
          "internalType": "address",
          "name": "owner_",
          "type": "address"
        }
      ],
      "name": "erc20BalanceOf",
      "outputs": [
        {
          "internalType": "uint256",
          "name": "",
          "type": "uint256"
        }
      ],
      "stateMutability": "view",
      "type": "function"
    },
    {
      "inputs": [],
      "name": "erc20TotalSupply",
      "outputs": [
        {
          "internalType": "uint256",
          "name": "",
          "type": "uint256"
        }
      ],
      "stateMutability": "view",
      "type": "function"
    },
    {
      "inputs": [
        {
          "internalType": "address",
          "name": "from_",
          "type": "address"
        },
        {
          "internalType": "address",
          "name": "to_",
          "type": "address"
        },
        {
          "internalType": "uint256",
          "name": "value_",
          "type": "uint256"
        }
      ],
      "name": "erc20TransferFrom",
      "outputs": [
        {
          "internalType": "bool",
          "name": "",
          "type": "bool"
        }
      ],
      "stateMutability": "nonpayable",
      "type": "function"
    },
    {
      "inputs": [
        {
          "internalType": "address",
          "name": "spender_",
          "type": "address"
        },
        {
          "internalType": "uint256",
          "name": "id_",
          "type": "uint256"
        }
      ],
      "name": "erc721Approve",
      "outputs": [],
      "stateMutability": "nonpayable",
      "type": "function"
    },
    {
      "inputs": [
        {
          "internalType": "address",
          "name": "owner_",
          "type": "address"
        }
      ],
      "name": "erc721BalanceOf",
      "outputs": [
        {
          "internalType": "uint256",
          "name": "",
          "type": "uint256"
        }
      ],
      "stateMutability": "view",
      "type": "function"
    },
    {
      "inputs": [],
      "name": "erc721TotalSupply",
      "outputs": [
        {
          "internalType": "uint256",
          "name": "",
          "type": "uint256"
        }
      ],
      "stateMutability": "view",
      "type": "function"
    },
    {
      "inputs": [
        {
          "internalType": "address",
          "name": "target_",
          "type": "address"
        }
      ],
      "name": "erc721TransferExempt",
      "outputs": [
        {
          "internalType": "bool",
          "name": "",
          "type": "bool"
        }
      ],
      "stateMutability": "view",
      "type": "function"
    },
    {
      "inputs": [
        {
          "internalType": "address",
          "name": "from_",
          "type": "address"
        },
        {
          "internalType": "address",
          "name": "to_",
          "type": "address"
        },
        {
          "internalType": "uint256",
          "name": "id_",
          "type": "uint256"
        }
      ],
      "name": "erc721TransferFrom",
      "outputs": [],
      "stateMutability": "nonpayable",
      "type": "function"
    },
    {
      "inputs": [
        {
          "internalType": "uint256",
          "name": "",
          "type": "uint256"
        }
      ],
      "name": "getApproved",
      "outputs": [
        {
          "internalType": "address",
          "name": "",
          "type": "address"
        }
      ],
      "stateMutability": "view",
      "type": "function"
    },
    {
      "inputs": [],
      "name": "getERC721QueueLength",
      "outputs": [
        {
          "internalType": "uint256",
          "name": "",
          "type": "uint256"
        }
      ],
      "stateMutability": "view",
      "type": "function"
    },
    {
      "inputs": [
        {
          "internalType": "uint256",
          "name": "start_",
          "type": "uint256"
        },
        {
          "internalType": "uint256",
          "name": "count_",
          "type": "uint256"
        }
      ],
      "name": "getERC721TokensInQueue",
      "outputs": [
        {
          "internalType": "uint256[]",
          "name": "",
          "type": "uint256[]"
        }
      ],
      "stateMutability": "view",
      "type": "function"
    },
    {
      "inputs": [
        {
          "internalType": "address",
          "name": "",
          "type": "address"
        },
        {
          "internalType": "address",
          "name": "",
          "type": "address"
        }
      ],
      "name": "isApprovedForAll",
      "outputs": [
        {
          "internalType": "bool",
          "name": "",
          "type": "bool"
        }
      ],
      "stateMutability": "view",
      "type": "function"
    },
    {
      "inputs": [],
      "name": "minted",
      "outputs": [
        {
          "internalType": "uint256",
          "name": "",
          "type": "uint256"
        }
      ],
      "stateMutability": "view",
      "type": "function"
    },
    {
      "inputs": [],
      "name": "name",
      "outputs": [
        {
          "internalType": "string",
          "name": "",
          "type": "string"
        }
      ],
      "stateMutability": "view",
      "type": "function"
    },
    {
      "inputs": [
        {
          "internalType": "address",
          "name": "",
          "type": "address"
        }
      ],
      "name": "nonces",
      "outputs": [
        {
          "internalType": "uint256",
          "name": "",
          "type": "uint256"
        }
      ],
      "stateMutability": "view",
      "type": "function"
    },
    {
      "inputs": [
        {
          "internalType": "address",
          "name": "owner_",
          "type": "address"
        }
      ],
      "name": "owned",
      "outputs": [
        {
          "internalType": "uint256[]",
          "name": "",
          "type": "uint256[]"
        }
      ],
      "stateMutability": "view",
      "type": "function"
    },
    {
      "inputs": [],
      "name": "owner",
      "outputs": [
        {
          "internalType": "address",
          "name": "",
          "type": "address"
        }
      ],
      "stateMutability": "view",
      "type": "function"
    },
    {
      "inputs": [
        {
          "internalType": "uint256",
          "name": "id_",
          "type": "uint256"
        }
      ],
      "name": "ownerOf",
      "outputs": [
        {
          "internalType": "address",
          "name": "erc721Owner",
          "type": "address"
        }
      ],
      "stateMutability": "view",
      "type": "function"
    },
    {
      "inputs": [
        {
          "internalType": "address",
          "name": "owner_",
          "type": "address"
        },
        {
          "internalType": "address",
          "name": "spender_",
          "type": "address"
        },
        {
          "internalType": "uint256",
          "name": "value_",
          "type": "uint256"
        },
        {
          "internalType": "uint256",
          "name": "deadline_",
          "type": "uint256"
        },
        {
          "internalType": "uint8",
          "name": "v_",
          "type": "uint8"
        },
        {
          "internalType": "bytes32",
          "name": "r_",
          "type": "bytes32"
        },
        {
          "internalType": "bytes32",
          "name": "s_",
          "type": "bytes32"
        }
      ],
      "name": "permit",
      "outputs": [],
      "stateMutability": "nonpayable",
      "type": "function"
    },
    {
      "inputs": [],
      "name": "renounceOwnership",
      "outputs": [],
      "stateMutability": "nonpayable",
      "type": "function"
    },
    {
      "inputs": [
        {
          "internalType": "address",
          "name": "from_",
          "type": "address"
        },
        {
          "internalType": "address",
          "name": "to_",
          "type": "address"
        },
        {
          "internalType": "uint256",
          "name": "id_",
          "type": "uint256"
        }
      ],
      "name": "safeTransferFrom",
      "outputs": [],
      "stateMutability": "nonpayable",
      "type": "function"
    },
    {
      "inputs": [
        {
          "internalType": "address",
          "name": "from_",
          "type": "address"
        },
        {
          "internalType": "address",
          "name": "to_",
          "type": "address"
        },
        {
          "internalType": "uint256",
          "name": "id_",
          "type": "uint256"
        },
        {
          "internalType": "bytes",
          "name": "data_",
          "type": "bytes"
        }
      ],
      "name": "safeTransferFrom",
      "outputs": [],
      "stateMutability": "nonpayable",
      "type": "function"
    },
    {
      "inputs": [
        {
          "internalType": "address",
          "name": "operator_",
          "type": "address"
        },
        {
          "internalType": "bool",
          "name": "approved_",
          "type": "bool"
        }
      ],
      "name": "setApprovalForAll",
      "outputs": [],
      "stateMutability": "nonpayable",
      "type": "function"
    },
    {
      "inputs": [
        {
          "internalType": "address",
          "name": "account_",
          "type": "address"
        },
        {
          "internalType": "bool",
          "name": "value_",
          "type": "bool"
        }
      ],
      "name": "setERC721TransferExempt",
      "outputs": [],
      "stateMutability": "nonpayable",
      "type": "function"
    },
    {
      "inputs": [
        {
          "internalType": "bool",
          "name": "state_",
          "type": "bool"
        }
      ],
      "name": "setSelfERC721TransferExempt",
      "outputs": [],
      "stateMutability": "nonpayable",
      "type": "function"
    },
    {
      "inputs": [
        {
          "internalType": "string",
          "name": "_baseURI",
          "type": "string"
        }
      ],
      "name": "setTokenURI",
      "outputs": [],
      "stateMutability": "nonpayable",
      "type": "function"
    },
    {
      "inputs": [
        {
          "internalType": "bytes4",
          "name": "interfaceId",
          "type": "bytes4"
        }
      ],
      "name": "supportsInterface",
      "outputs": [
        {
          "internalType": "bool",
          "name": "",
          "type": "bool"
        }
      ],
      "stateMutability": "view",
      "type": "function"
    },
    {
      "inputs": [],
      "name": "symbol",
      "outputs": [
        {
          "internalType": "string",
          "name": "",
          "type": "string"
        }
      ],
      "stateMutability": "view",
      "type": "function"
    },
    {
      "inputs": [
        {
          "internalType": "uint256",
          "name": "id_",
          "type": "uint256"
        }
      ],
      "name": "tokenURI",
      "outputs": [
        {
          "internalType": "string",
          "name": "",
          "type": "string"
        }
      ],
      "stateMutability": "view",
      "type": "function"
    },
    {
      "inputs": [],
      "name": "totalSupply",
      "outputs": [
        {
          "internalType": "uint256",
          "name": "",
          "type": "uint256"
        }
      ],
      "stateMutability": "view",
      "type": "function"
    },
    {
      "inputs": [
        {
          "internalType": "address",
          "name": "to_",
          "type": "address"
        },
        {
          "internalType": "uint256",
          "name": "value_",
          "type": "uint256"
        }
      ],
      "name": "transfer",
      "outputs": [
        {
          "internalType": "bool",
          "name": "",
          "type": "bool"
        }
      ],
      "stateMutability": "nonpayable",
      "type": "function"
    },
    {
      "inputs": [
        {
          "internalType": "address",
          "name": "from_",
          "type": "address"
        },
        {
          "internalType": "address",
          "name": "to_",
          "type": "address"
        },
        {
          "internalType": "uint256",
          "name": "valueOrId_",
          "type": "uint256"
        }
      ],
      "name": "transferFrom",
      "outputs": [
        {
          "internalType": "bool",
          "name": "",
          "type": "bool"
        }
      ],
      "stateMutability": "nonpayable",
      "type": "function"
    },
    {
      "inputs": [
        {
          "internalType": "address",
          "name": "newOwner",
          "type": "address"
        }
      ],
      "name": "transferOwnership",
      "outputs": [],
      "stateMutability": "nonpayable",
      "type": "function"
    },
    {
      "inputs": [],
      "name": "units",
      "outputs": [
        {
          "internalType": "uint256",
          "name": "",
          "type": "uint256"
        }
      ],
      "stateMutability": "view",
      "type": "function"
    }
  ],
  "bytecode": "0x6101006040523480156200001257600080fd5b5060405162006d1938038062006d19833981810160405281019062000038919062001972565b85858584600073ffffffffffffffffffffffffffffffffffffffff168173ffffffffffffffffffffffffffffffffffffffff1603620000b15760006040517f1e4fbdf7000000000000000000000000000000000000000000000000000000008152600401620000a8919062001a5d565b60405180910390fd5b620000c281620001ae60201b60201c565b508260039081620000d4919062001cbb565b508160049081620000e6919062001cbb565b5060128160ff16101562000126576040517f98790fd500000000000000000000000000000000000000000000000000000000815260040160405180910390fd5b8060ff1660808160ff1681525050608051600a62000145919062001f25565b60a081815250504660c08181525050620001646200027260201b60201c565b60e08181525050505050620001818160016200030260201b60201c565b620001a28160a0518562000196919062001f76565b620003f460201b60201c565b505050505050620022b7565b60008060009054906101000a900473ffffffffffffffffffffffffffffffffffffffff169050816000806101000a81548173ffffffffffffffffffffffffffffffffffffffff021916908373ffffffffffffffffffffffffffffffffffffffff1602179055508173ffffffffffffffffffffffffffffffffffffffff168173ffffffffffffffffffffffffffffffffffffffff167f8be0079c531659141344cd1fd0a4f28419497f9722a3daafe3b4186f6b6457e060405160405180910390a35050565b60007f8b73c3c69bb8fe3d512ecc4cf759cc79239f7b179b0ffacaa9a75d522b39400f6003604051620002a6919062002070565b60405180910390207fc89efdaa54c0f20c7adf612882df0950f5a951637e0307cdcb4c672f298b8bc64630604051602001620002e7959493929190620020b5565b60405160208183030381529060405280519060200120905090565b600073ffffffffffffffffffffffffffffffffffffffff168273ffffffffffffffffffffffffffffffffffffffff160362000369576040517fa41e3d3f00000000000000000000000000000000000000000000000000000000815260040160405180910390fd5b801562000387576200038182620004de60201b60201c565b62000399565b62000398826200052160201b60201c565b5b80600d60008473ffffffffffffffffffffffffffffffffffffffff1673ffffffffffffffffffffffffffffffffffffffff16815260200190815260200160002060006101000a81548160ff0219169083151502179055505050565b600073ffffffffffffffffffffffffffffffffffffffff168273ffffffffffffffffffffffffffffffffffffffff16036200045b576040517f9c8d2cd200000000000000000000000000000000000000000000000000000000815260040160405180910390fd5b7f8000000000000000000000000000000000000000000000000000000000000000816005546200048c919062002112565b1115620004c5576040517f303b682f00000000000000000000000000000000000000000000000000000000815260040160405180910390fd5b620004d9600083836200059660201b60201c565b505050565b6000620004f1826200091560201b60201c565b905060005b818110156200051c5762000510836200096160201b60201c565b806001019050620004f6565b505050565b600060a051620005378362000aa960201b60201c565b6200054391906200217c565b9050600062000558836200091560201b60201c565b905060005b81836200056b9190620021b4565b8110156200059057620005848462000af260201b60201c565b8060010190506200055d565b50505050565b600080620005aa8562000aa960201b60201c565b90506000620005bf8562000aa960201b60201c565b9050620005d486868662000cc760201b60201c565b6000620005e78762000e2f60201b60201c565b90506000620005fc8762000e2f60201b60201c565b9050818015620006095750805b62000906578115620006b557600060a051846200062791906200217c565b60a051600760008b73ffffffffffffffffffffffffffffffffffffffff1673ffffffffffffffffffffffffffffffffffffffff168152602001908152602001600020546200067691906200217c565b620006829190620021b4565b905060005b81811015620006ad57620006a18962000af260201b60201c565b80600101905062000687565b505062000905565b80156200075c57600060a051600760008b73ffffffffffffffffffffffffffffffffffffffff1673ffffffffffffffffffffffffffffffffffffffff168152602001908152602001600020546200070d91906200217c565b60a051866200071d91906200217c565b620007299190620021b4565b905060005b818110156200075457620007488a6200096160201b60201c565b8060010190506200072e565b505062000904565b600060a051876200076e91906200217c565b905060005b81811015620008555760006001600c60008d73ffffffffffffffffffffffffffffffffffffffff1673ffffffffffffffffffffffffffffffffffffffff16815260200190815260200160002080549050620007cf9190620021b4565b90506000600c60008d73ffffffffffffffffffffffffffffffffffffffff1673ffffffffffffffffffffffffffffffffffffffff1681526020019081526020016000208281548110620008275762000826620021ef565b5b90600052602060002001549050620008478c8c8362000ebc60201b60201c565b826001019250505062000773565b508060a0516200086b8b62000aa960201b60201c565b6200087791906200217c565b60a051876200088791906200217c565b620008939190620021b4565b1115620008ac57620008ab896200096160201b60201c565b5b8060a05185620008bd91906200217c565b60a051620008d18b62000aa960201b60201c565b620008dd91906200217c565b620008e99190620021b4565b11156200090257620009018862000af260201b60201c565b5b505b5b5b60019450505050509392505050565b6000600c60008373ffffffffffffffffffffffffffffffffffffffff1673ffffffffffffffffffffffffffffffffffffffff168152602001908152602001600020805490509050919050565b600073ffffffffffffffffffffffffffffffffffffffff168173ffffffffffffffffffffffffffffffffffffffff1603620009c8576040517fddb5de5e00000000000000000000000000000000000000000000000000000000815260040160405180910390fd5b6000600c60008373ffffffffffffffffffffffffffffffffffffffff1673ffffffffffffffffffffffffffffffffffffffff1681526020019081526020016000206001600c60008573ffffffffffffffffffffffffffffffffffffffff1673ffffffffffffffffffffffffffffffffffffffff1681526020019081526020016000208054905062000a5a9190620021b4565b8154811062000a6e5762000a6d620021ef565b5b9060005260206000200154905062000a8f8260008362000ebc60201b60201c565b62000aa58160016200126560201b90919060201c565b5050565b6000600760008373ffffffffffffffffffffffffffffffffffffffff1673ffffffffffffffffffffffffffffffffffffffff168152602001908152602001600020549050919050565b600073ffffffffffffffffffffffffffffffffffffffff168173ffffffffffffffffffffffffffffffffffffffff160362000b59576040517f9c8d2cd200000000000000000000000000000000000000000000000000000000815260040160405180910390fd5b600062000b6d60016200138960201b60201c565b62000b8c5762000b846001620013f960201b60201c565b905062000c33565b60066000815462000b9d906200221e565b919050819055507fffffffffffffffffffffffffffffffffffffffffffffffffffffffffffffffff6006540362000c00576040517f303b682f00000000000000000000000000000000000000000000000000000000815260040160405180910390fd5b6006547f800000000000000000000000000000000000000000000000000000000000000062000c30919062002112565b90505b600062000c46826200155e60201b60201c565b9050600073ffffffffffffffffffffffffffffffffffffffff168173ffffffffffffffffffffffffffffffffffffffff161462000caf576040517f23369fa600000000000000000000000000000000000000000000000000000000815260040160405180910390fd5b62000cc281848462000ebc60201b60201c565b505050565b600073ffffffffffffffffffffffffffffffffffffffff168373ffffffffffffffffffffffffffffffffffffffff160362000d1d57806005600082825462000d10919062002112565b9250508190555062000d76565b80600760008573ffffffffffffffffffffffffffffffffffffffff1673ffffffffffffffffffffffffffffffffffffffff168152602001908152602001600020600082825462000d6e9190620021b4565b925050819055505b80600760008473ffffffffffffffffffffffffffffffffffffffff1673ffffffffffffffffffffffffffffffffffffffff168152602001908152602001600020600082825401925050819055508173ffffffffffffffffffffffffffffffffffffffff168373ffffffffffffffffffffffffffffffffffffffff167fddf252ad1be2c89b69c2b068fc378daa952ba7f163c4a11628f55a4df523b3ef8360405162000e2291906200226b565b60405180910390a3505050565b60008073ffffffffffffffffffffffffffffffffffffffff168273ffffffffffffffffffffffffffffffffffffffff16148062000eb55750600d60008373ffffffffffffffffffffffffffffffffffffffff1673ffffffffffffffffffffffffffffffffffffffff16815260200190815260200160002060009054906101000a900460ff165b9050919050565b600073ffffffffffffffffffffffffffffffffffffffff168373ffffffffffffffffffffffffffffffffffffffff1614620010d8576009600082815260200190815260200160002060006101000a81549073ffffffffffffffffffffffffffffffffffffffff02191690556000600c60008573ffffffffffffffffffffffffffffffffffffffff1673ffffffffffffffffffffffffffffffffffffffff1681526020019081526020016000206001600c60008773ffffffffffffffffffffffffffffffffffffffff1673ffffffffffffffffffffffffffffffffffffffff1681526020019081526020016000208054905062000fb99190620021b4565b8154811062000fcd5762000fcc620021ef565b5b906000526020600020015490508181146200106e57600062000ff5836200159660201b60201c565b905081600c60008773ffffffffffffffffffffffffffffffffffffffff1673ffffffffffffffffffffffffffffffffffffffff16815260200190815260200160002082815481106200104c576200104b620021ef565b5b90600052602060002001819055506200106c8282620015bb60201b60201c565b505b600c60008573ffffffffffffffffffffffffffffffffffffffff1673ffffffffffffffffffffffffffffffffffffffff168152602001908152602001600020805480620010c057620010bf62002288565b5b60019003818190600052602060002001600090559055505b600073ffffffffffffffffffffffffffffffffffffffff168273ffffffffffffffffffffffffffffffffffffffff1614620011ed576200111f81836200168f60201b60201c565b600c60008373ffffffffffffffffffffffffffffffffffffffff1673ffffffffffffffffffffffffffffffffffffffff168152602001908152602001600020819080600181540180825580915050600190039060005260206000200160009091909190915055620011e7816001600c60008673ffffffffffffffffffffffffffffffffffffffff1673ffffffffffffffffffffffffffffffffffffffff16815260200190815260200160002080549050620011db9190620021b4565b620015bb60201b60201c565b62001205565b600b6000828152602001908152602001600020600090555b808273ffffffffffffffffffffffffffffffffffffffff168473ffffffffffffffffffffffffffffffffffffffff167fddf252ad1be2c89b69c2b068fc378daa952ba7f163c4a11628f55a4df523b3ef60405160405180910390a4505050565b600060018360000160009054906101000a90046fffffffffffffffffffffffffffffffff160390508260000160109054906101000a90046fffffffffffffffffffffffffffffffff166fffffffffffffffffffffffffffffffff16816fffffffffffffffffffffffffffffffff16036200130b576040517f8acb5f2700000000000000000000000000000000000000000000000000000000815260040160405180910390fd5b81836001016000836fffffffffffffffffffffffffffffffff166fffffffffffffffffffffffffffffffff16815260200190815260200160002081905550808360000160006101000a8154816fffffffffffffffffffffffffffffffff02191690836fffffffffffffffffffffffffffffffff160217905550505050565b60008160000160009054906101000a90046fffffffffffffffffffffffffffffffff166fffffffffffffffffffffffffffffffff168260000160109054906101000a90046fffffffffffffffffffffffffffffffff166fffffffffffffffffffffffffffffffff16149050919050565b6000808260000160109054906101000a90046fffffffffffffffffffffffffffffffff1690508260000160009054906101000a90046fffffffffffffffffffffffffffffffff166fffffffffffffffffffffffffffffffff16816fffffffffffffffffffffffffffffffff16036200149d576040517f75e52f4f00000000000000000000000000000000000000000000000000000000815260040160405180910390fd5b80600190039050826001016000826fffffffffffffffffffffffffffffffff166fffffffffffffffffffffffffffffffff168152602001908152602001600020549150826001016000826fffffffffffffffffffffffffffffffff166fffffffffffffffffffffffffffffffff16815260200190815260200160002060009055808360000160106101000a8154816fffffffffffffffffffffffffffffffff02191690836fffffffffffffffffffffffffffffffff16021790555050919050565b600080600b600084815260200190815260200160002054905073ffffffffffffffffffffffffffffffffffffffff8116915050919050565b600080600b60008481526020019081526020016000205490508060a01c915050919050565b6000600b600084815260200190815260200160002054905060a07fffffffffffffffffffffffff0000000000000000000000000000000000000000901c82111562001632576040517ffcb3438c00000000000000000000000000000000000000000000000000000000815260040160405180910390fd5b7fffffffffffffffffffffffff00000000000000000000000000000000000000008260a01b1673ffffffffffffffffffffffffffffffffffffffff821601905080600b600085815260200190815260200160002081905550505050565b6000600b600084815260200190815260200160002054905073ffffffffffffffffffffffffffffffffffffffff82167fffffffffffffffffffffffff0000000000000000000000000000000000000000821601905080600b600085815260200190815260200160002081905550505050565b6000604051905090565b600080fd5b600080fd5b600080fd5b600080fd5b6000601f19601f8301169050919050565b7f4e487b7100000000000000000000000000000000000000000000000000000000600052604160045260246000fd5b6200176a826200171f565b810181811067ffffffffffffffff821117156200178c576200178b62001730565b5b80604052505050565b6000620017a162001701565b9050620017af82826200175f565b919050565b600067ffffffffffffffff821115620017d257620017d162001730565b5b620017dd826200171f565b9050602081019050919050565b60005b838110156200180a578082015181840152602081019050620017ed565b60008484015250505050565b60006200182d6200182784620017b4565b62001795565b9050828152602081018484840111156200184c576200184b6200171a565b5b62001859848285620017ea565b509392505050565b600082601f83011262001879576200187862001715565b5b81516200188b84826020860162001816565b91505092915050565b600060ff82169050919050565b620018ac8162001894565b8114620018b857600080fd5b50565b600081519050620018cc81620018a1565b92915050565b6000819050919050565b620018e781620018d2565b8114620018f357600080fd5b50565b6000815190506200190781620018dc565b92915050565b600073ffffffffffffffffffffffffffffffffffffffff82169050919050565b60006200193a826200190d565b9050919050565b6200194c816200192d565b81146200195857600080fd5b50565b6000815190506200196c8162001941565b92915050565b60008060008060008060c087890312156200199257620019916200170b565b5b600087015167ffffffffffffffff811115620019b357620019b262001710565b5b620019c189828a0162001861565b965050602087015167ffffffffffffffff811115620019e557620019e462001710565b5b620019f389828a0162001861565b955050604062001a0689828a01620018bb565b945050606062001a1989828a01620018f6565b935050608062001a2c89828a016200195b565b92505060a062001a3f89828a016200195b565b9150509295509295509295565b62001a57816200192d565b82525050565b600060208201905062001a74600083018462001a4c565b92915050565b600081519050919050565b7f4e487b7100000000000000000000000000000000000000000000000000000000600052602260045260246000fd5b6000600282049050600182168062001acd57607f821691505b60208210810362001ae35762001ae262001a85565b5b50919050565b60008190508160005260206000209050919050565b60006020601f8301049050919050565b600082821b905092915050565b60006008830262001b4d7fffffffffffffffffffffffffffffffffffffffffffffffffffffffffffffffff8262001b0e565b62001b59868362001b0e565b95508019841693508086168417925050509392505050565b6000819050919050565b600062001b9c62001b9662001b9084620018d2565b62001b71565b620018d2565b9050919050565b6000819050919050565b62001bb88362001b7b565b62001bd062001bc78262001ba3565b84845462001b1b565b825550505050565b600090565b62001be762001bd8565b62001bf481848462001bad565b505050565b5b8181101562001c1c5762001c1060008262001bdd565b60018101905062001bfa565b5050565b601f82111562001c6b5762001c358162001ae9565b62001c408462001afe565b8101602085101562001c50578190505b62001c6862001c5f8562001afe565b83018262001bf9565b50505b505050565b600082821c905092915050565b600062001c906000198460080262001c70565b1980831691505092915050565b600062001cab838362001c7d565b9150826002028217905092915050565b62001cc68262001a7a565b67ffffffffffffffff81111562001ce25762001ce162001730565b5b62001cee825462001ab4565b62001cfb82828562001c20565b600060209050601f83116001811462001d33576000841562001d1e578287015190505b62001d2a858262001c9d565b86555062001d9a565b601f19841662001d438662001ae9565b60005b8281101562001d6d5784890151825560018201915060208501945060208101905062001d46565b8683101562001d8d578489015162001d89601f89168262001c7d565b8355505b6001600288020188555050505b505050505050565b7f4e487b7100000000000000000000000000000000000000000000000000000000600052601160045260246000fd5b60008160011c9050919050565b6000808291508390505b600185111562001e305780860481111562001e085762001e0762001da2565b5b600185161562001e185780820291505b808102905062001e288562001dd1565b945062001de8565b94509492505050565b60008262001e4b576001905062001f1e565b8162001e5b576000905062001f1e565b816001811462001e74576002811462001e7f5762001eb5565b600191505062001f1e565b60ff84111562001e945762001e9362001da2565b5b8360020a91508482111562001eae5762001ead62001da2565b5b5062001f1e565b5060208310610133831016604e8410600b841016171562001eef5782820a90508381111562001ee95762001ee862001da2565b5b62001f1e565b62001efe848484600162001dde565b9250905081840481111562001f185762001f1762001da2565b5b81810290505b9392505050565b600062001f3282620018d2565b915062001f3f8362001894565b925062001f6e7fffffffffffffffffffffffffffffffffffffffffffffffffffffffffffffffff848462001e39565b905092915050565b600062001f8382620018d2565b915062001f9083620018d2565b925082820262001fa081620018d2565b9150828204841483151762001fba5762001fb962001da2565b5b5092915050565b600081905092915050565b60008190508160005260206000209050919050565b6000815462001ff08162001ab4565b62001ffc818662001fc1565b945060018216600081146200201a5760018114620020305762002067565b60ff198316865281151582028601935062002067565b6200203b8562001fcc565b60005b838110156200205f578154818901526001820191506020810190506200203e565b838801955050505b50505092915050565b60006200207e828462001fe1565b915081905092915050565b6000819050919050565b6200209e8162002089565b82525050565b620020af81620018d2565b82525050565b600060a082019050620020cc600083018862002093565b620020db602083018762002093565b620020ea604083018662002093565b620020f96060830185620020a4565b62002108608083018462001a4c565b9695505050505050565b60006200211f82620018d2565b91506200212c83620018d2565b925082820190508082111562002147576200214662001da2565b5b92915050565b7f4e487b7100000000000000000000000000000000000000000000000000000000600052601260045260246000fd5b60006200218982620018d2565b91506200219683620018d2565b925082620021a957620021a86200214d565b5b828204905092915050565b6000620021c182620018d2565b9150620021ce83620018d2565b9250828203905081811115620021e957620021e862001da2565b5b92915050565b7f4e487b7100000000000000000000000000000000000000000000000000000000600052603260045260246000fd5b60006200222b82620018d2565b91507fffffffffffffffffffffffffffffffffffffffffffffffffffffffffffffffff820362002260576200225f62001da2565b5b600182019050919050565b6000602082019050620022826000830184620020a4565b92915050565b7f4e487b7100000000000000000000000000000000000000000000000000000000600052603160045260246000fd5b60805160a05160c05160e0516149db6200233e6000396000610bbf01526000610b8b015260008181610fde01528181611d38015281816124b0015281816124dc01528181612581015281816125ec0152818161264c0152818161275201528181612786015281816127cd015281816127f90152612ee201526000610b6501526149db6000f3fe608060405234801561001057600080fd5b506004361061025e5760003560e01c80638a696e5011610146578063c6e672b9116100c3578063dd63769911610087578063dd6376991461079b578063dfabc033146107b7578063e0df5b6f146107d3578063e985e9c5146107ef578063f2fde38b1461081f578063f780bc1a1461083b5761025e565b8063c6e672b9146106d3578063c87b56dd146106ef578063d505accf1461071f578063d96ca0b91461073b578063dd62ed3e1461076b5761025e565b8063a9059cbb1161010a578063a9059cbb14610609578063b1ab931714610639578063b3f9ea3414610669578063b88d4fde14610699578063c5ab3ba6146106b55761025e565b80638a696e50146105775780638da5cb5b1461059357806395d89b41146105b1578063976a8435146105cf578063a22cb465146105ed5761025e565b80633644e515116101df5780636c0360eb116101a35780636c0360eb146104b35780636e8f624b146104d157806370a08231146104ef578063715018a61461051f5780637ecebe001461052957806389fb4c66146105595761025e565b80633644e515146103fb57806342842e0e146104195780634d966072146104355780634f02c420146104655780636352211e146104835761025e565b806309674eb01161022657806309674eb01461034157806309f0ef651461035f57806318160ddd1461038f57806323b872dd146103ad578063313ce567146103dd5761025e565b806301ffc9a71461026357806302519da31461029357806306fdde03146102c3578063081812fc146102e1578063095ea7b314610311575b600080fd5b61027d60048036038101906102789190613857565b61086b565b60405161028a919061389f565b60405180910390f35b6102ad60048036038101906102a89190613918565b61093d565b6040516102ba919061395e565b60405180910390f35b6102cb610986565b6040516102d89190613a09565b60405180910390f35b6102fb60048036038101906102f69190613a57565b610a14565b6040516103089190613a93565b60405180910390f35b61032b60048036038101906103269190613aae565b610a47565b604051610338919061389f565b60405180910390f35b610349610a82565b604051610356919061395e565b60405180910390f35b61037960048036038101906103749190613918565b610a93565b604051610386919061389f565b60405180910390f35b610397610b1f565b6040516103a4919061395e565b60405180910390f35b6103c760048036038101906103c29190613aee565b610b25565b6040516103d4919061389f565b60405180910390f35b6103e5610b63565b6040516103f29190613b5d565b60405180910390f35b610403610b87565b6040516104109190613b91565b60405180910390f35b610433600480360381019061042e9190613aee565b610be4565b005b61044f600480360381019061044a9190613aae565b610c04565b60405161045c919061389f565b60405180910390f35b61046d610d5b565b60405161047a919061395e565b60405180910390f35b61049d60048036038101906104989190613a57565b610d61565b6040516104aa9190613a93565b60405180910390f35b6104bb610e18565b6040516104c89190613a09565b60405180910390f35b6104d9610ea6565b6040516104e6919061395e565b60405180910390f35b61050960048036038101906105049190613918565b610eca565b604051610516919061395e565b60405180910390f35b610527610ee2565b005b610543600480360381019061053e9190613918565b610ef6565b604051610550919061395e565b60405180910390f35b610561610f0e565b60405161056e919061395e565b60405180910390f35b610591600480360381019061058c9190613bd8565b610f18565b005b61059b610f25565b6040516105a89190613a93565b60405180910390f35b6105b9610f4e565b6040516105c69190613a09565b60405180910390f35b6105d7610fdc565b6040516105e4919061395e565b60405180910390f35b61060760048036038101906106029190613c05565b611000565b005b610623600480360381019061061e9190613aae565b611163565b604051610630919061389f565b60405180910390f35b610653600480360381019061064e9190613918565b6111dd565b6040516106609190613d03565b60405180910390f35b610683600480360381019061067e9190613918565b611274565b604051610690919061395e565b60405180910390f35b6106b360048036038101906106ae9190613e5a565b6112c0565b005b6106bd611436565b6040516106ca919061395e565b60405180910390f35b6106ed60048036038101906106e89190613c05565b611440565b005b61070960048036038101906107049190613a57565b611456565b6040516107169190613a09565b60405180910390f35b61073960048036038101906107349190613f35565b61148a565b005b61075560048036038101906107509190613aee565b611817565b604051610762919061389f565b60405180910390f35b61078560048036038101906107809190613fd7565b611a2e565b604051610792919061395e565b60405180910390f35b6107b560048036038101906107b09190613aee565b611a53565b005b6107d160048036038101906107cc9190613aae565b611d6c565b005b6107ed60048036038101906107e89190614077565b611f25565b005b61080960048036038101906108049190613fd7565b611f43565b604051610816919061389f565b60405180910390f35b61083960048036038101906108349190613918565b611f72565b005b610855600480360381019061085091906140c4565b611ff8565b6040516108629190613d03565b60405180910390f35b60007fcaf91ff5000000000000000000000000000000000000000000000000000000007bffffffffffffffffffffffffffffffffffffffffffffffffffffffff1916827bffffffffffffffffffffffffffffffffffffffffffffffffffffffff1916148061093657507f01ffc9a7000000000000000000000000000000000000000000000000000000007bffffffffffffffffffffffffffffffffffffffffffffffffffffffff1916827bffffffffffffffffffffffffffffffffffffffffffffffffffffffff1916145b9050919050565b6000600760008373ffffffffffffffffffffffffffffffffffffffff1673ffffffffffffffffffffffffffffffffffffffff168152602001908152602001600020549050919050565b6003805461099390614133565b80601f01602080910402602001604051908101604052809291908181526020018280546109bf90614133565b8015610a0c5780601f106109e157610100808354040283529160200191610a0c565b820191906000526020600020905b8154815290600101906020018083116109ef57829003601f168201915b505050505081565b60096020528060005260406000206000915054906101000a900473ffffffffffffffffffffffffffffffffffffffff1681565b6000610a52826120b4565b15610a6657610a618383611d6c565b610a77565b610a708383610c04565b9050610a7c565b600190505b92915050565b6000610a8e600161210c565b905090565b60008073ffffffffffffffffffffffffffffffffffffffff168273ffffffffffffffffffffffffffffffffffffffff161480610b185750600d60008373ffffffffffffffffffffffffffffffffffffffff1673ffffffffffffffffffffffffffffffffffffffff16815260200190815260200160002060009054906101000a900460ff165b9050919050565b60055481565b6000610b30826120b4565b15610b4557610b40848484611a53565b610b57565b610b50848484611817565b9050610b5c565b600190505b9392505050565b7f000000000000000000000000000000000000000000000000000000000000000081565b60007f00000000000000000000000000000000000000000000000000000000000000004614610bbd57610bb861216a565b610bdf565b7f00000000000000000000000000000000000000000000000000000000000000005b905090565b610bff838383604051806020016040528060008152506112c0565b505050565b60008073ffffffffffffffffffffffffffffffffffffffff168373ffffffffffffffffffffffffffffffffffffffff1603610c6b576040517f5461585f00000000000000000000000000000000000000000000000000000000815260040160405180910390fd5b81600860003373ffffffffffffffffffffffffffffffffffffffff1673ffffffffffffffffffffffffffffffffffffffff16815260200190815260200160002060008573ffffffffffffffffffffffffffffffffffffffff1673ffffffffffffffffffffffffffffffffffffffff168152602001908152602001600020819055508273ffffffffffffffffffffffffffffffffffffffff163373ffffffffffffffffffffffffffffffffffffffff167f8c5be1e5ebec7d5bd14f71427d1e84f3dd0314c0f7b2291e5b200ac8c7c3b92584604051610d49919061395e565b60405180910390a36001905092915050565b60065481565b6000610d6c826121f6565b9050610d77826120b4565b610dad576040517f3f6cc76800000000000000000000000000000000000000000000000000000000815260040160405180910390fd5b600073ffffffffffffffffffffffffffffffffffffffff168173ffffffffffffffffffffffffffffffffffffffff1603610e13576040517fc5723b5100000000000000000000000000000000000000000000000000000000815260040160405180910390fd5b919050565b600f8054610e2590614133565b80601f0160208091040260200160405190810160405280929190818152602001828054610e5190614133565b8015610e9e5780601f10610e7357610100808354040283529160200191610e9e565b820191906000526020600020905b815481529060010190602001808311610e8157829003601f168201915b505050505081565b7f800000000000000000000000000000000000000000000000000000000000000081565b60076020528060005260406000206000915090505481565b610eea61222e565b610ef460006122b5565b565b600e6020528060005260406000206000915090505481565b6000600554905090565b610f223382612379565b50565b60008060009054906101000a900473ffffffffffffffffffffffffffffffffffffffff16905090565b60048054610f5b90614133565b80601f0160208091040260200160405190810160405280929190818152602001828054610f8790614133565b8015610fd45780601f10610fa957610100808354040283529160200191610fd4565b820191906000526020600020905b815481529060010190602001808311610fb757829003601f168201915b505050505081565b7f000000000000000000000000000000000000000000000000000000000000000081565b600073ffffffffffffffffffffffffffffffffffffffff168273ffffffffffffffffffffffffffffffffffffffff1603611066576040517fccea9e6f00000000000000000000000000000000000000000000000000000000815260040160405180910390fd5b80600a60003373ffffffffffffffffffffffffffffffffffffffff1673ffffffffffffffffffffffffffffffffffffffff16815260200190815260200160002060008473ffffffffffffffffffffffffffffffffffffffff1673ffffffffffffffffffffffffffffffffffffffff16815260200190815260200160002060006101000a81548160ff0219169083151502179055508173ffffffffffffffffffffffffffffffffffffffff163373ffffffffffffffffffffffffffffffffffffffff167f17307eab39ab6107e8899845ad3d59bd9653f200f220920489ca2b5937696c3183604051611157919061389f565b60405180910390a35050565b60008073ffffffffffffffffffffffffffffffffffffffff168373ffffffffffffffffffffffffffffffffffffffff16036111ca576040517f9c8d2cd200000000000000000000000000000000000000000000000000000000815260040160405180910390fd5b6111d5338484612458565b905092915050565b6060600c60008373ffffffffffffffffffffffffffffffffffffffff1673ffffffffffffffffffffffffffffffffffffffff16815260200190815260200160002080548060200260200160405190810160405280929190818152602001828054801561126857602002820191906000526020600020905b815481526020019060010190808311611254575b50505050509050919050565b6000600c60008373ffffffffffffffffffffffffffffffffffffffff1673ffffffffffffffffffffffffffffffffffffffff168152602001908152602001600020805490509050919050565b6112c9826120b4565b6112ff576040517f3f6cc76800000000000000000000000000000000000000000000000000000000815260040160405180910390fd5b61130a848484610b25565b5060008373ffffffffffffffffffffffffffffffffffffffff163b141580156113f9575063150b7a0260e01b7bffffffffffffffffffffffffffffffffffffffffffffffffffffffff19168373ffffffffffffffffffffffffffffffffffffffff1663150b7a02338786866040518563ffffffff1660e01b815260040161139494939291906141b9565b6020604051808303816000875af11580156113b3573d6000803e3d6000fd5b505050506040513d601f19601f820116820180604052508101906113d7919061421a565b7bffffffffffffffffffffffffffffffffffffffffffffffffffffffff191614155b15611430576040517f3da6393100000000000000000000000000000000000000000000000000000000815260040160405180910390fd5b50505050565b6000600654905090565b61144861222e565b6114528282612379565b5050565b6060600f61146383612858565b60405160200161147492919061431b565b6040516020818303038152906040529050919050565b428410156114c4576040517f05787bdf00000000000000000000000000000000000000000000000000000000815260040160405180910390fd5b6114cd856120b4565b15611504576040517f1f3e0de800000000000000000000000000000000000000000000000000000000815260040160405180910390fd5b600073ffffffffffffffffffffffffffffffffffffffff168673ffffffffffffffffffffffffffffffffffffffff160361156a576040517f5461585f00000000000000000000000000000000000000000000000000000000815260040160405180910390fd5b60006001611576610b87565b7f6e71edae12b1b97f4d1f60370fef10105fa2faae0126114a169c64845d6126c98a8a8a600e60008f73ffffffffffffffffffffffffffffffffffffffff1673ffffffffffffffffffffffffffffffffffffffff1681526020019081526020016000206000815480929190600101919050558b6040516020016115fe9695949392919061433f565b6040516020818303038152906040528051906020012060405160200161162592919061440d565b604051602081830303815290604052805190602001208585856040516000815260200160405260405161165b9493929190614444565b6020604051602081039080840390855afa15801561167d573d6000803e3d6000fd5b505050602060405103519050600073ffffffffffffffffffffffffffffffffffffffff168173ffffffffffffffffffffffffffffffffffffffff1614806116f057508773ffffffffffffffffffffffffffffffffffffffff168173ffffffffffffffffffffffffffffffffffffffff1614155b15611727576040517f815e1d6400000000000000000000000000000000000000000000000000000000815260040160405180910390fd5b85600860008373ffffffffffffffffffffffffffffffffffffffff1673ffffffffffffffffffffffffffffffffffffffff16815260200190815260200160002060008973ffffffffffffffffffffffffffffffffffffffff1673ffffffffffffffffffffffffffffffffffffffff16815260200190815260200160002081905550508573ffffffffffffffffffffffffffffffffffffffff168773ffffffffffffffffffffffffffffffffffffffff167f8c5be1e5ebec7d5bd14f71427d1e84f3dd0314c0f7b2291e5b200ac8c7c3b92587604051611806919061395e565b60405180910390a350505050505050565b60008073ffffffffffffffffffffffffffffffffffffffff168473ffffffffffffffffffffffffffffffffffffffff160361187e576040517fddb5de5e00000000000000000000000000000000000000000000000000000000815260040160405180910390fd5b600073ffffffffffffffffffffffffffffffffffffffff168373ffffffffffffffffffffffffffffffffffffffff16036118e4576040517f9c8d2cd200000000000000000000000000000000000000000000000000000000815260040160405180910390fd5b6000600860008673ffffffffffffffffffffffffffffffffffffffff1673ffffffffffffffffffffffffffffffffffffffff16815260200190815260200160002060003373ffffffffffffffffffffffffffffffffffffffff1673ffffffffffffffffffffffffffffffffffffffff1681526020019081526020016000205490507fffffffffffffffffffffffffffffffffffffffffffffffffffffffffffffffff8114611a1957828161199891906144b8565b600860008773ffffffffffffffffffffffffffffffffffffffff1673ffffffffffffffffffffffffffffffffffffffff16815260200190815260200160002060003373ffffffffffffffffffffffffffffffffffffffff1673ffffffffffffffffffffffffffffffffffffffff168152602001908152602001600020819055505b611a24858585612458565b9150509392505050565b6008602052816000526040600020602052806000526040600020600091509150505481565b600073ffffffffffffffffffffffffffffffffffffffff168373ffffffffffffffffffffffffffffffffffffffff1603611ab9576040517fddb5de5e00000000000000000000000000000000000000000000000000000000815260040160405180910390fd5b600073ffffffffffffffffffffffffffffffffffffffff168273ffffffffffffffffffffffffffffffffffffffff1603611b1f576040517f9c8d2cd200000000000000000000000000000000000000000000000000000000815260040160405180910390fd5b611b28816121f6565b73ffffffffffffffffffffffffffffffffffffffff168373ffffffffffffffffffffffffffffffffffffffff1614611b8c576040517f82b4290000000000000000000000000000000000000000000000000000000000815260040160405180910390fd5b8273ffffffffffffffffffffffffffffffffffffffff163373ffffffffffffffffffffffffffffffffffffffff1614158015611c4f5750600a60008473ffffffffffffffffffffffffffffffffffffffff1673ffffffffffffffffffffffffffffffffffffffff16815260200190815260200160002060003373ffffffffffffffffffffffffffffffffffffffff1673ffffffffffffffffffffffffffffffffffffffff16815260200190815260200160002060009054906101000a900460ff16155b8015611cba57506009600082815260200190815260200160002060009054906101000a900473ffffffffffffffffffffffffffffffffffffffff1673ffffffffffffffffffffffffffffffffffffffff163373ffffffffffffffffffffffffffffffffffffffff1614155b15611cf1576040517f82b4290000000000000000000000000000000000000000000000000000000000815260040160405180910390fd5b611cfa82610a93565b15611d31576040517f5ce7539700000000000000000000000000000000000000000000000000000000815260040160405180910390fd5b611d5c83837f0000000000000000000000000000000000000000000000000000000000000000612926565b611d67838383612a86565b505050565b6000611d77826121f6565b90508073ffffffffffffffffffffffffffffffffffffffff163373ffffffffffffffffffffffffffffffffffffffff1614158015611e3c5750600a60008273ffffffffffffffffffffffffffffffffffffffff1673ffffffffffffffffffffffffffffffffffffffff16815260200190815260200160002060003373ffffffffffffffffffffffffffffffffffffffff1673ffffffffffffffffffffffffffffffffffffffff16815260200190815260200160002060009054906101000a900460ff16155b15611e73576040517f82b4290000000000000000000000000000000000000000000000000000000000815260040160405180910390fd5b826009600084815260200190815260200160002060006101000a81548173ffffffffffffffffffffffffffffffffffffffff021916908373ffffffffffffffffffffffffffffffffffffffff160217905550818373ffffffffffffffffffffffffffffffffffffffff168273ffffffffffffffffffffffffffffffffffffffff167f8c5be1e5ebec7d5bd14f71427d1e84f3dd0314c0f7b2291e5b200ac8c7c3b92560405160405180910390a4505050565b611f2d61222e565b8181600f9182611f3e92919061468e565b505050565b600a6020528160005260406000206020528060005260406000206000915091509054906101000a900460ff1681565b611f7a61222e565b600073ffffffffffffffffffffffffffffffffffffffff168173ffffffffffffffffffffffffffffffffffffffff1603611fec5760006040517f1e4fbdf7000000000000000000000000000000000000000000000000000000008152600401611fe39190613a93565b60405180910390fd5b611ff5816122b5565b50565b606060008267ffffffffffffffff81111561201657612015613d2f565b5b6040519080825280602002602001820160405280156120445781602001602082028036833780820191505090505b50905060008490505b8385612059919061475e565b8110156120a957612074816001612dfe90919063ffffffff16565b82868361208191906144b8565b8151811061209257612091614792565b5b60200260200101818152505080600101905061204d565b508091505092915050565b60007f80000000000000000000000000000000000000000000000000000000000000008211801561210557507fffffffffffffffffffffffffffffffffffffffffffffffffffffffffffffffff8214155b9050919050565b60008160000160009054906101000a90046fffffffffffffffffffffffffffffffff168260000160109054906101000a90046fffffffffffffffffffffffffffffffff16036fffffffffffffffffffffffffffffffff169050919050565b60007f8b73c3c69bb8fe3d512ecc4cf759cc79239f7b179b0ffacaa9a75d522b39400f600360405161219c9190614864565b60405180910390207fc89efdaa54c0f20c7adf612882df0950f5a951637e0307cdcb4c672f298b8bc646306040516020016121db95949392919061487b565b60405160208183030381529060405280519060200120905090565b600080600b600084815260200190815260200160002054905073ffffffffffffffffffffffffffffffffffffffff8116915050919050565b612236612ea5565b73ffffffffffffffffffffffffffffffffffffffff16612254610f25565b73ffffffffffffffffffffffffffffffffffffffff16146122b357612277612ea5565b6040517f118cdaa70000000000000000000000000000000000000000000000000000000081526004016122aa9190613a93565b60405180910390fd5b565b60008060009054906101000a900473ffffffffffffffffffffffffffffffffffffffff169050816000806101000a81548173ffffffffffffffffffffffffffffffffffffffff021916908373ffffffffffffffffffffffffffffffffffffffff1602179055508173ffffffffffffffffffffffffffffffffffffffff168173ffffffffffffffffffffffffffffffffffffffff167f8be0079c531659141344cd1fd0a4f28419497f9722a3daafe3b4186f6b6457e060405160405180910390a35050565b600073ffffffffffffffffffffffffffffffffffffffff168273ffffffffffffffffffffffffffffffffffffffff16036123df576040517fa41e3d3f00000000000000000000000000000000000000000000000000000000815260040160405180910390fd5b80156123f3576123ee82612ead565b6123fd565b6123fc82612ede565b5b80600d60008473ffffffffffffffffffffffffffffffffffffffff1673ffffffffffffffffffffffffffffffffffffffff16815260200190815260200160002060006101000a81548160ff0219169083151502179055505050565b6000806124648561093d565b905060006124718561093d565b905061247e868686612926565b600061248987610a93565b9050600061249687610a93565b90508180156124a25750805b6128495781156125775760007f0000000000000000000000000000000000000000000000000000000000000000846124da91906148fd565b7f0000000000000000000000000000000000000000000000000000000000000000600760008b73ffffffffffffffffffffffffffffffffffffffff1673ffffffffffffffffffffffffffffffffffffffff1681526020019081526020016000205461254591906148fd565b61254f91906144b8565b905060005b818110156125705761256589612f53565b806001019050612554565b5050612848565b80156126485760007f0000000000000000000000000000000000000000000000000000000000000000600760008b73ffffffffffffffffffffffffffffffffffffffff1673ffffffffffffffffffffffffffffffffffffffff168152602001908152602001600020546125ea91906148fd565b7f00000000000000000000000000000000000000000000000000000000000000008661261691906148fd565b61262091906144b8565b905060005b81811015612641576126368a6130ff565b806001019050612625565b5050612847565b60007f00000000000000000000000000000000000000000000000000000000000000008761267691906148fd565b905060005b8181101561274e5760006001600c60008d73ffffffffffffffffffffffffffffffffffffffff1673ffffffffffffffffffffffffffffffffffffffff168152602001908152602001600020805490506126d491906144b8565b90506000600c60008d73ffffffffffffffffffffffffffffffffffffffff1673ffffffffffffffffffffffffffffffffffffffff168152602001908152602001600020828154811061272957612728614792565b5b906000526020600020015490506127418c8c83612a86565b826001019250505061267b565b50807f000000000000000000000000000000000000000000000000000000000000000061277a8b61093d565b61278491906148fd565b7f0000000000000000000000000000000000000000000000000000000000000000876127b091906148fd565b6127ba91906144b8565b11156127ca576127c9896130ff565b5b807f0000000000000000000000000000000000000000000000000000000000000000856127f791906148fd565b7f00000000000000000000000000000000000000000000000000000000000000006128218b61093d565b61282b91906148fd565b61283591906144b8565b11156128455761284488612f53565b5b505b5b5b60019450505050509392505050565b60606000600161286784613237565b01905060008167ffffffffffffffff81111561288657612885613d2f565b5b6040519080825280601f01601f1916602001820160405280156128b85781602001600182028036833780820191505090505b509050600082602001820190505b60011561291b578080600190039150507f3031323334353637383961626364656600000000000000000000000000000000600a86061a8153600a858161290f5761290e6148ce565b5b049450600085036128c6575b819350505050919050565b600073ffffffffffffffffffffffffffffffffffffffff168373ffffffffffffffffffffffffffffffffffffffff160361297857806005600082825461296c919061475e565b925050819055506129cf565b80600760008573ffffffffffffffffffffffffffffffffffffffff1673ffffffffffffffffffffffffffffffffffffffff16815260200190815260200160002060008282546129c791906144b8565b925050819055505b80600760008473ffffffffffffffffffffffffffffffffffffffff1673ffffffffffffffffffffffffffffffffffffffff168152602001908152602001600020600082825401925050819055508173ffffffffffffffffffffffffffffffffffffffff168373ffffffffffffffffffffffffffffffffffffffff167fddf252ad1be2c89b69c2b068fc378daa952ba7f163c4a11628f55a4df523b3ef83604051612a79919061395e565b60405180910390a3505050565b600073ffffffffffffffffffffffffffffffffffffffff168373ffffffffffffffffffffffffffffffffffffffff1614612c85576009600082815260200190815260200160002060006101000a81549073ffffffffffffffffffffffffffffffffffffffff02191690556000600c60008573ffffffffffffffffffffffffffffffffffffffff1673ffffffffffffffffffffffffffffffffffffffff1681526020019081526020016000206001600c60008773ffffffffffffffffffffffffffffffffffffffff1673ffffffffffffffffffffffffffffffffffffffff16815260200190815260200160002080549050612b8091906144b8565b81548110612b9157612b90614792565b5b90600052602060002001549050818114612c1e576000612bb08361338a565b905081600c60008773ffffffffffffffffffffffffffffffffffffffff1673ffffffffffffffffffffffffffffffffffffffff1681526020019081526020016000208281548110612c0457612c03614792565b5b9060005260206000200181905550612c1c82826133af565b505b600c60008573ffffffffffffffffffffffffffffffffffffffff1673ffffffffffffffffffffffffffffffffffffffff168152602001908152602001600020805480612c6d57612c6c61492e565b5b60019003818190600052602060002001600090559055505b600073ffffffffffffffffffffffffffffffffffffffff168273ffffffffffffffffffffffffffffffffffffffff1614612d8657612cc38183613482565b600c60008373ffffffffffffffffffffffffffffffffffffffff1673ffffffffffffffffffffffffffffffffffffffff168152602001908152602001600020819080600181540180825580915050600190039060005260206000200160009091909190915055612d81816001600c60008673ffffffffffffffffffffffffffffffffffffffff1673ffffffffffffffffffffffffffffffffffffffff16815260200190815260200160002080549050612d7c91906144b8565b6133af565b612d9e565b600b6000828152602001908152602001600020600090555b808273ffffffffffffffffffffffffffffffffffffffff168473ffffffffffffffffffffffffffffffffffffffff167fddf252ad1be2c89b69c2b068fc378daa952ba7f163c4a11628f55a4df523b3ef60405160405180910390a4505050565b6000612e098361210c565b8210612e41576040517f580821e700000000000000000000000000000000000000000000000000000000815260040160405180910390fd5b826001016000838560000160009054906101000a90046fffffffffffffffffffffffffffffffff16016fffffffffffffffffffffffffffffffff166fffffffffffffffffffffffffffffffff16815260200190815260200160002054905092915050565b600033905090565b6000612eb882611274565b905060005b81811015612ed957612ece836130ff565b806001019050612ebd565b505050565b60007f0000000000000000000000000000000000000000000000000000000000000000612f0a8361093d565b612f1491906148fd565b90506000612f2183611274565b905060005b8183612f3291906144b8565b811015612f4d57612f4284612f53565b806001019050612f26565b50505050565b600073ffffffffffffffffffffffffffffffffffffffff168173ffffffffffffffffffffffffffffffffffffffff1603612fb9576040517f9c8d2cd200000000000000000000000000000000000000000000000000000000815260040160405180910390fd5b6000612fc560016134f4565b612fda57612fd36001613564565b905061307c565b600660008154612fe99061495d565b919050819055507fffffffffffffffffffffffffffffffffffffffffffffffffffffffffffffffff6006540361304b576040517f303b682f00000000000000000000000000000000000000000000000000000000815260040160405180910390fd5b6006547f8000000000000000000000000000000000000000000000000000000000000000613079919061475e565b90505b6000613087826121f6565b9050600073ffffffffffffffffffffffffffffffffffffffff168173ffffffffffffffffffffffffffffffffffffffff16146130ef576040517f23369fa600000000000000000000000000000000000000000000000000000000815260040160405180910390fd5b6130fa818484612a86565b505050565b600073ffffffffffffffffffffffffffffffffffffffff168173ffffffffffffffffffffffffffffffffffffffff1603613165576040517fddb5de5e00000000000000000000000000000000000000000000000000000000815260040160405180910390fd5b6000600c60008373ffffffffffffffffffffffffffffffffffffffff1673ffffffffffffffffffffffffffffffffffffffff1681526020019081526020016000206001600c60008573ffffffffffffffffffffffffffffffffffffffff1673ffffffffffffffffffffffffffffffffffffffff168152602001908152602001600020805490506131f591906144b8565b8154811061320657613205614792565b5b9060005260206000200154905061321f82600083612a86565b6132338160016136c890919063ffffffff16565b5050565b600080600090507a184f03e93ff9f4daa797ed6e38ed64bf6a1f0100000000000000008310613295577a184f03e93ff9f4daa797ed6e38ed64bf6a1f010000000000000000838161328b5761328a6148ce565b5b0492506040810190505b6d04ee2d6d415b85acef810000000083106132d2576d04ee2d6d415b85acef810000000083816132c8576132c76148ce565b5b0492506020810190505b662386f26fc10000831061330157662386f26fc1000083816132f7576132f66148ce565b5b0492506010810190505b6305f5e100831061332a576305f5e10083816133205761331f6148ce565b5b0492506008810190505b612710831061334f576127108381613345576133446148ce565b5b0492506004810190505b606483106133725760648381613368576133676148ce565b5b0492506002810190505b600a8310613381576001810190505b80915050919050565b600080600b60008481526020019081526020016000205490508060a01c915050919050565b6000600b600084815260200190815260200160002054905060a07fffffffffffffffffffffffff0000000000000000000000000000000000000000901c821115613425576040517ffcb3438c00000000000000000000000000000000000000000000000000000000815260040160405180910390fd5b7fffffffffffffffffffffffff00000000000000000000000000000000000000008260a01b1673ffffffffffffffffffffffffffffffffffffffff821601905080600b600085815260200190815260200160002081905550505050565b6000600b600084815260200190815260200160002054905073ffffffffffffffffffffffffffffffffffffffff82167fffffffffffffffffffffffff0000000000000000000000000000000000000000821601905080600b600085815260200190815260200160002081905550505050565b60008160000160009054906101000a90046fffffffffffffffffffffffffffffffff166fffffffffffffffffffffffffffffffff168260000160109054906101000a90046fffffffffffffffffffffffffffffffff166fffffffffffffffffffffffffffffffff16149050919050565b6000808260000160109054906101000a90046fffffffffffffffffffffffffffffffff1690508260000160009054906101000a90046fffffffffffffffffffffffffffffffff166fffffffffffffffffffffffffffffffff16816fffffffffffffffffffffffffffffffff1603613607576040517f75e52f4f00000000000000000000000000000000000000000000000000000000815260040160405180910390fd5b80600190039050826001016000826fffffffffffffffffffffffffffffffff166fffffffffffffffffffffffffffffffff168152602001908152602001600020549150826001016000826fffffffffffffffffffffffffffffffff166fffffffffffffffffffffffffffffffff16815260200190815260200160002060009055808360000160106101000a8154816fffffffffffffffffffffffffffffffff02191690836fffffffffffffffffffffffffffffffff16021790555050919050565b600060018360000160009054906101000a90046fffffffffffffffffffffffffffffffff160390508260000160109054906101000a90046fffffffffffffffffffffffffffffffff166fffffffffffffffffffffffffffffffff16816fffffffffffffffffffffffffffffffff160361376d576040517f8acb5f2700000000000000000000000000000000000000000000000000000000815260040160405180910390fd5b81836001016000836fffffffffffffffffffffffffffffffff166fffffffffffffffffffffffffffffffff16815260200190815260200160002081905550808360000160006101000a8154816fffffffffffffffffffffffffffffffff02191690836fffffffffffffffffffffffffffffffff160217905550505050565b6000604051905090565b600080fd5b600080fd5b60007fffffffff0000000000000000000000000000000000000000000000000000000082169050919050565b613834816137ff565b811461383f57600080fd5b50565b6000813590506138518161382b565b92915050565b60006020828403121561386d5761386c6137f5565b5b600061387b84828501613842565b91505092915050565b60008115159050919050565b61389981613884565b82525050565b60006020820190506138b46000830184613890565b92915050565b600073ffffffffffffffffffffffffffffffffffffffff82169050919050565b60006138e5826138ba565b9050919050565b6138f5816138da565b811461390057600080fd5b50565b600081359050613912816138ec565b92915050565b60006020828403121561392e5761392d6137f5565b5b600061393c84828501613903565b91505092915050565b6000819050919050565b61395881613945565b82525050565b6000602082019050613973600083018461394f565b92915050565b600081519050919050565b600082825260208201905092915050565b60005b838110156139b3578082015181840152602081019050613998565b60008484015250505050565b6000601f19601f8301169050919050565b60006139db82613979565b6139e58185613984565b93506139f5818560208601613995565b6139fe816139bf565b840191505092915050565b60006020820190508181036000830152613a2381846139d0565b905092915050565b613a3481613945565b8114613a3f57600080fd5b50565b600081359050613a5181613a2b565b92915050565b600060208284031215613a6d57613a6c6137f5565b5b6000613a7b84828501613a42565b91505092915050565b613a8d816138da565b82525050565b6000602082019050613aa86000830184613a84565b92915050565b60008060408385031215613ac557613ac46137f5565b5b6000613ad385828601613903565b9250506020613ae485828601613a42565b9150509250929050565b600080600060608486031215613b0757613b066137f5565b5b6000613b1586828701613903565b9350506020613b2686828701613903565b9250506040613b3786828701613a42565b9150509250925092565b600060ff82169050919050565b613b5781613b41565b82525050565b6000602082019050613b726000830184613b4e565b92915050565b6000819050919050565b613b8b81613b78565b82525050565b6000602082019050613ba66000830184613b82565b92915050565b613bb581613884565b8114613bc057600080fd5b50565b600081359050613bd281613bac565b92915050565b600060208284031215613bee57613bed6137f5565b5b6000613bfc84828501613bc3565b91505092915050565b60008060408385031215613c1c57613c1b6137f5565b5b6000613c2a85828601613903565b9250506020613c3b85828601613bc3565b9150509250929050565b600081519050919050565b600082825260208201905092915050565b6000819050602082019050919050565b613c7a81613945565b82525050565b6000613c8c8383613c71565b60208301905092915050565b6000602082019050919050565b6000613cb082613c45565b613cba8185613c50565b9350613cc583613c61565b8060005b83811015613cf6578151613cdd8882613c80565b9750613ce883613c98565b925050600181019050613cc9565b5085935050505092915050565b60006020820190508181036000830152613d1d8184613ca5565b905092915050565b600080fd5b600080fd5b7f4e487b7100000000000000000000000000000000000000000000000000000000600052604160045260246000fd5b613d67826139bf565b810181811067ffffffffffffffff82111715613d8657613d85613d2f565b5b80604052505050565b6000613d996137eb565b9050613da58282613d5e565b919050565b600067ffffffffffffffff821115613dc557613dc4613d2f565b5b613dce826139bf565b9050602081019050919050565b82818337600083830152505050565b6000613dfd613df884613daa565b613d8f565b905082815260208101848484011115613e1957613e18613d2a565b5b613e24848285613ddb565b509392505050565b600082601f830112613e4157613e40613d25565b5b8135613e51848260208601613dea565b91505092915050565b60008060008060808587031215613e7457613e736137f5565b5b6000613e8287828801613903565b9450506020613e9387828801613903565b9350506040613ea487828801613a42565b925050606085013567ffffffffffffffff811115613ec557613ec46137fa565b5b613ed187828801613e2c565b91505092959194509250565b613ee681613b41565b8114613ef157600080fd5b50565b600081359050613f0381613edd565b92915050565b613f1281613b78565b8114613f1d57600080fd5b50565b600081359050613f2f81613f09565b92915050565b600080600080600080600060e0888a031215613f5457613f536137f5565b5b6000613f628a828b01613903565b9750506020613f738a828b01613903565b9650506040613f848a828b01613a42565b9550506060613f958a828b01613a42565b9450506080613fa68a828b01613ef4565b93505060a0613fb78a828b01613f20565b92505060c0613fc88a828b01613f20565b91505092959891949750929550565b60008060408385031215613fee57613fed6137f5565b5b6000613ffc85828601613903565b925050602061400d85828601613903565b9150509250929050565b600080fd5b600080fd5b60008083601f84011261403757614036613d25565b5b8235905067ffffffffffffffff81111561405457614053614017565b5b6020830191508360018202830111156140705761406f61401c565b5b9250929050565b6000806020838503121561408e5761408d6137f5565b5b600083013567ffffffffffffffff8111156140ac576140ab6137fa565b5b6140b885828601614021565b92509250509250929050565b600080604083850312156140db576140da6137f5565b5b60006140e985828601613a42565b92505060206140fa85828601613a42565b9150509250929050565b7f4e487b7100000000000000000000000000000000000000000000000000000000600052602260045260246000fd5b6000600282049050600182168061414b57607f821691505b60208210810361415e5761415d614104565b5b50919050565b600081519050919050565b600082825260208201905092915050565b600061418b82614164565b614195818561416f565b93506141a5818560208601613995565b6141ae816139bf565b840191505092915050565b60006080820190506141ce6000830187613a84565b6141db6020830186613a84565b6141e8604083018561394f565b81810360608301526141fa8184614180565b905095945050505050565b6000815190506142148161382b565b92915050565b6000602082840312156142305761422f6137f5565b5b600061423e84828501614205565b91505092915050565b600081905092915050565b60008190508160005260206000209050919050565b6000815461427481614133565b61427e8186614247565b9450600182166000811461429957600181146142ae576142e1565b60ff19831686528115158202860193506142e1565b6142b785614252565b60005b838110156142d9578154818901526001820191506020810190506142ba565b838801955050505b50505092915050565b60006142f582613979565b6142ff8185614247565b935061430f818560208601613995565b80840191505092915050565b60006143278285614267565b915061433382846142ea565b91508190509392505050565b600060c0820190506143546000830189613b82565b6143616020830188613a84565b61436e6040830187613a84565b61437b606083018661394f565b614388608083018561394f565b61439560a083018461394f565b979650505050505050565b7f1901000000000000000000000000000000000000000000000000000000000000600082015250565b60006143d6600283614247565b91506143e1826143a0565b600282019050919050565b6000819050919050565b61440761440282613b78565b6143ec565b82525050565b6000614418826143c9565b915061442482856143f6565b60208201915061443482846143f6565b6020820191508190509392505050565b60006080820190506144596000830187613b82565b6144666020830186613b4e565b6144736040830185613b82565b6144806060830184613b82565b95945050505050565b7f4e487b7100000000000000000000000000000000000000000000000000000000600052601160045260246000fd5b60006144c382613945565b91506144ce83613945565b92508282039050818111156144e6576144e5614489565b5b92915050565b600082905092915050565b60006020601f8301049050919050565b600082821b905092915050565b6000600883026145447fffffffffffffffffffffffffffffffffffffffffffffffffffffffffffffffff82614507565b61454e8683614507565b95508019841693508086168417925050509392505050565b6000819050919050565b600061458b61458661458184613945565b614566565b613945565b9050919050565b6000819050919050565b6145a583614570565b6145b96145b182614592565b848454614514565b825550505050565b600090565b6145ce6145c1565b6145d981848461459c565b505050565b5b818110156145fd576145f26000826145c6565b6001810190506145df565b5050565b601f8211156146425761461381614252565b61461c846144f7565b8101602085101561462b578190505b61463f614637856144f7565b8301826145de565b50505b505050565b600082821c905092915050565b600061466560001984600802614647565b1980831691505092915050565b600061467e8383614654565b9150826002028217905092915050565b61469883836144ec565b67ffffffffffffffff8111156146b1576146b0613d2f565b5b6146bb8254614133565b6146c6828285614601565b6000601f8311600181146146f557600084156146e3578287013590505b6146ed8582614672565b865550614755565b601f19841661470386614252565b60005b8281101561472b57848901358255600182019150602085019450602081019050614706565b868310156147485784890135614744601f891682614654565b8355505b6001600288020188555050505b50505050505050565b600061476982613945565b915061477483613945565b925082820190508082111561478c5761478b614489565b5b92915050565b7f4e487b7100000000000000000000000000000000000000000000000000000000600052603260045260246000fd5b600081905092915050565b60008190508160005260206000209050919050565b600081546147ee81614133565b6147f881866147c1565b9450600182166000811461481357600181146148285761485b565b60ff198316865281151582028601935061485b565b614831856147cc565b60005b8381101561485357815481890152600182019150602081019050614834565b838801955050505b50505092915050565b600061487082846147e1565b915081905092915050565b600060a0820190506148906000830188613b82565b61489d6020830187613b82565b6148aa6040830186613b82565b6148b7606083018561394f565b6148c46080830184613a84565b9695505050505050565b7f4e487b7100000000000000000000000000000000000000000000000000000000600052601260045260246000fd5b600061490882613945565b915061491383613945565b925082614923576149226148ce565b5b828204905092915050565b7f4e487b7100000000000000000000000000000000000000000000000000000000600052603160045260246000fd5b600061496882613945565b91507fffffffffffffffffffffffffffffffffffffffffffffffffffffffffffffffff820361499a57614999614489565b5b60018201905091905056fea26469706673582212202d24e6a47864bf25ff07aa139ee835097668defd573792ea044cb83a6d23100b64736f6c63430008140033",
  "linkReferences": {},
  "deployedLinkReferences": {}
}